{
  "_format": "hh-sol-artifact-1",
  "contractName": "Deploy",
  "sourceName": "contracts/Deploy.sol",
  "abi": [
    {
      "anonymous": false,
      "inputs": [
        {
          "indexed": false,
          "internalType": "string",
          "name": "eventOutput",
          "type": "string"
        }
      ],
      "name": "myEventTest",
      "type": "event"
    },
    {
      "inputs": [],
      "name": "get",
      "outputs": [
        {
          "internalType": "string",
          "name": "",
          "type": "string"
        }
      ],
      "stateMutability": "view",
      "type": "function"
    },
    {
      "inputs": [
        {
          "internalType": "string",
          "name": "myText",
          "type": "string"
        }
      ],
      "name": "set",
      "outputs": [],
      "stateMutability": "nonpayable",
      "type": "function"
    },
    {
      "inputs": [],
      "name": "storedData",
      "outputs": [
        {
          "internalType": "string",
          "name": "",
          "type": "string"
        }
      ],
      "stateMutability": "view",
      "type": "function"
    }
  ],
  "bytecode": "0x608060405234801561001057600080fd5b50610572806100206000396000f3fe608060405234801561001057600080fd5b50600436106100415760003560e01c80632a1afcd9146100465780634ed3885e146100645780636d4ce63c14610080575b600080fd5b61004e61009e565b60405161005b9190610394565b60405180910390f35b61007e6004803603810190610079919061031a565b61012c565b005b61008861017d565b6040516100959190610394565b60405180910390f35b600080546100ab9061046a565b80601f01602080910402602001604051908101604052809291908181526020018280546100d79061046a565b80156101245780601f106100f957610100808354040283529160200191610124565b820191906000526020600020905b81548152906001019060200180831161010757829003601f168201915b505050505081565b806000908051906020019061014292919061020f565b507f319b9e64f64b033d6b8102f9688735cefac53d266b6e85d21cf85e9856fc7b99816040516101729190610394565b60405180910390a150565b60606000805461018c9061046a565b80601f01602080910402602001604051908101604052809291908181526020018280546101b89061046a565b80156102055780601f106101da57610100808354040283529160200191610205565b820191906000526020600020905b8154815290600101906020018083116101e857829003601f168201915b5050505050905090565b82805461021b9061046a565b90600052602060002090601f01602090048101928261023d5760008555610284565b82601f1061025657805160ff1916838001178555610284565b82800160010185558215610284579182015b82811115610283578251825591602001919060010190610268565b5b5090506102919190610295565b5090565b5b808211156102ae576000816000905550600101610296565b5090565b60006102c56102c0846103db565b6103b6565b9050828152602081018484840111156102dd57600080fd5b6102e8848285610428565b509392505050565b600082601f83011261030157600080fd5b81356103118482602086016102b2565b91505092915050565b60006020828403121561032c57600080fd5b600082013567ffffffffffffffff81111561034657600080fd5b610352848285016102f0565b91505092915050565b60006103668261040c565b6103708185610417565b9350610380818560208601610437565b6103898161052b565b840191505092915050565b600060208201905081810360008301526103ae818461035b565b905092915050565b60006103c06103d1565b90506103cc828261049c565b919050565b6000604051905090565b600067ffffffffffffffff8211156103f6576103f56104fc565b5b6103ff8261052b565b9050602081019050919050565b600081519050919050565b600082825260208201905092915050565b82818337600083830152505050565b60005b8381101561045557808201518184015260208101905061043a565b83811115610464576000848401525b50505050565b6000600282049050600182168061048257607f821691505b60208210811415610496576104956104cd565b5b50919050565b6104a58261052b565b810181811067ffffffffffffffff821117156104c4576104c36104fc565b5b80604052505050565b7f4e487b7100000000000000000000000000000000000000000000000000000000600052602260045260246000fd5b7f4e487b7100000000000000000000000000000000000000000000000000000000600052604160045260246000fd5b6000601f19601f830116905091905056fea2646970667358221220928b844120018c62a275ebf100de6582346c0d12e67d20fed28cbd457fd05b2d64736f6c63430008040033",
  "linkReferences": {},
  "deployedLinkReferences": {}
}